{"abi":[{"type":"function","name":"main","inputs":[{"name":"unverifiedEmail","type":"tuple","internalType":"struct UnverifiedEmail","components":[{"name":"email","type":"string","internalType":"string"},{"name":"dnsRecord","type":"tuple","internalType":"struct DnsRecord","components":[{"name":"name","type":"string","internalType":"string"},{"name":"recordType","type":"uint8","internalType":"uint8"},{"name":"data","type":"string","internalType":"string"},{"name":"ttl","type":"uint64","internalType":"uint64"}]},{"name":"verificationData","type":"tuple","internalType":"struct VerificationData","components":[{"name":"validUntil","type":"uint64","internalType":"uint64"},{"name":"signature","type":"bytes","internalType":"bytes"},{"name":"pubKey","type":"bytes","internalType":"bytes"}]}]}],"outputs":[{"name":"","type":"tuple","internalType":"struct Proof","components":[{"name":"seal","type":"tuple","internalType":"struct Seal","components":[{"name":"verifierSelector","type":"bytes4","internalType":"bytes4"},{"name":"seal","type":"bytes32[8]","internalType":"bytes32[8]"},{"name":"mode","type":"uint8","internalType":"enum ProofMode"}]},{"name":"callGuestId","type":"bytes32","internalType":"bytes32"},{"name":"length","type":"uint256","internalType":"uint256"},{"name":"callAssumptions","type":"tuple","internalType":"struct CallAssumptions","components":[{"name":"proverContractAddress","type":"address","internalType":"address"},{"name":"functionSelector","type":"bytes4","internalType":"bytes4"},{"name":"settleChainId","type":"uint256","internalType":"uint256"},{"name":"settleBlockNumber","type":"uint256","internalType":"uint256"},{"name":"settleBlockHash","type":"bytes32","internalType":"bytes32"}]}]},{"name":"","type":"bytes32","internalType":"bytes32"},{"name":"","type":"address","internalType":"address"},{"name":"","type":"string","internalType":"string"}],"stateMutability":"view"},{"type":"function","name":"proof","inputs":[],"outputs":[{"name":"","type":"tuple","internalType":"struct Proof","components":[{"name":"seal","type":"tuple","internalType":"struct Seal","components":[{"name":"verifierSelector","type":"bytes4","internalType":"bytes4"},{"name":"seal","type":"bytes32[8]","internalType":"bytes32[8]"},{"name":"mode","type":"uint8","internalType":"enum ProofMode"}]},{"name":"callGuestId","type":"bytes32","internalType":"bytes32"},{"name":"length","type":"uint256","internalType":"uint256"},{"name":"callAssumptions","type":"tuple","internalType":"struct CallAssumptions","components":[{"name":"proverContractAddress","type":"address","internalType":"address"},{"name":"functionSelector","type":"bytes4","internalType":"bytes4"},{"name":"settleChainId","type":"uint256","internalType":"uint256"},{"name":"settleBlockNumber","type":"uint256","internalType":"uint256"},{"name":"settleBlockHash","type":"bytes32","internalType":"bytes32"}]}]}],"stateMutability":"pure"},{"type":"function","name":"setBlock","inputs":[{"name":"blockNo","type":"uint256","internalType":"uint256"}],"outputs":[],"stateMutability":"nonpayable"},{"type":"function","name":"setChain","inputs":[{"name":"chainId","type":"uint256","internalType":"uint256"},{"name":"blockNo","type":"uint256","internalType":"uint256"}],"outputs":[],"stateMutability":"nonpayable"},{"type":"function","name":"stringToAddress","inputs":[{"name":"str","type":"string","internalType":"string"}],"outputs":[{"name":"","type":"address","internalType":"address"}],"stateMutability":"pure"},{"type":"error","name":"FailedInnerCall","inputs":[]}],"bytecode":{"object":"0x6080604052348015600e575f5ffd5b506128168061001c5f395ff3fe608060405234801561000f575f5ffd5b5060043610610055575f3560e01c806315706fdf1461005957806387cea3ae14610089578063ac6981e5146100a5578063faf924cf146100d8578063ffbc5638146100f6575b5f5ffd5b610073600480360381019061006e91906111ca565b610112565b6040516100809190611250565b60405180910390f35b6100a3600480360381019061009e919061129c565b6102b4565b005b6100bf60048036038101906100ba91906112e9565b610391565b6040516100cf9493929190611617565b60405180910390f35b6100e06105c9565b6040516100ed9190611665565b60405180910390f35b610110600480360381019061010b919061167f565b6105de565b005b5f5f829050602a81511461015b576040517f08c379a000000000000000000000000000000000000000000000000000000000815260040161015290611707565b60405180910390fd5b5f601467ffffffffffffffff811115610177576101766110a6565b5b6040519080825280601f01601f1916602001820160405280156101a95781602001600182028036833780820191505090505b5090505f5f90505b601481101561029d576101f8836002836101cb9190611752565b60036101d79190611793565b815181106101e8576101e76117c6565b5b602001015160f81c60f81b6106be565b60106102388560028561020b9190611752565b60026102179190611793565b81518110610228576102276117c6565b5b602001015160f81c60f81b6106be565b61024291906117ff565b61024c919061183b565b60f81b828281518110610262576102616117c6565b5b60200101907effffffffffffffffffffffffffffffffffffffffffffffffffffffffffffff191690815f1a90535080806001019150506101b1565b50806102a8906118d3565b60601c92505050919050565b7f2ae215ce9fde588adfdea92976dc9aa45aa006a0f63942d8f9f21bd4537972a35f1c73ffffffffffffffffffffffffffffffffffffffff166387cea3ae826040518263ffffffff1660e01b815260040161030f9190611948565b6020604051808303815f875af115801561032b573d5f5f3e3d5ffd5b505050506040513d601f19601f8201168201806040525081019061034f9190611996565b61038e576040517f08c379a000000000000000000000000000000000000000000000000000000000815260040161038590611a0b565b60405180910390fd5b50565b610399610f4b565b5f5f60605f6103b0866103ab90611d31565b6108f8565b90505f6103e2604051806060016040528060348152602001612786603491398360400151610c4d90919063ffffffff16565b90505f815111610427576040517f08c379a000000000000000000000000000000000000000000000000000000000815260040161041e90611d8d565b60405180910390fd5b5f61044c8260018151811061043f5761043e6117c6565b5b6020026020010151610112565b90505f61047d6040518060600160405280602781526020016127ba60279139855f0151610c4d90919063ffffffff16565b905060028151146104c3576040517f08c379a00000000000000000000000000000000000000000000000000000000081526004016104ba90611df5565b60405180910390fd5b5f816001815181106104d8576104d76117c6565b5b60200260200101515111610521576040517f08c379a000000000000000000000000000000000000000000000000000000000815260040161051890611df5565b60405180910390fd5b6105296105c9565b6002855f015160405160200161053f9190611e4d565b60405160208183030381529060405260405161055b9190611e9d565b602060405180830381855afa158015610576573d5f5f3e3d5ffd5b5050506040513d601f19601f820116820180604052508101906105999190611edd565b83836001815181106105ae576105ad6117c6565b5b60200260200101519750975097509750505050509193509193565b6105d1610f4b565b6105d9610d34565b905090565b7f2ae215ce9fde588adfdea92976dc9aa45aa006a0f63942d8f9f21bd4537972a35f1c73ffffffffffffffffffffffffffffffffffffffff1663ffbc563883836040518363ffffffff1660e01b815260040161063b929190611f08565b6020604051808303815f875af1158015610657573d5f5f3e3d5ffd5b505050506040513d601f19601f8201168201806040525081019061067b9190611996565b6106ba576040517f08c379a00000000000000000000000000000000000000000000000000000000081526004016106b190611a0b565b60405180910390fd5b5050565b5f5f8260f81c90507f300000000000000000000000000000000000000000000000000000000000000060f81c60ff168160ff161015801561072857507f390000000000000000000000000000000000000000000000000000000000000060f81c60ff168160ff1611155b15610764577f300000000000000000000000000000000000000000000000000000000000000060f81c8161075c9190611f2f565b9150506108f3565b7f610000000000000000000000000000000000000000000000000000000000000060f81c60ff168160ff16101580156107c657507f660000000000000000000000000000000000000000000000000000000000000060f81c60ff168160ff1611155b1561080e577f610000000000000000000000000000000000000000000000000000000000000060f81c81600a6107fc919061183b565b6108069190611f2f565b9150506108f3565b7f410000000000000000000000000000000000000000000000000000000000000060f81c60ff168160ff161015801561087057507f460000000000000000000000000000000000000000000000000000000000000060f81c60ff168160ff1611155b156108b8577f410000000000000000000000000000000000000000000000000000000000000060f81c81600a6108a6919061183b565b6108b09190611f2f565b9150506108f3565b6040517f08c379a00000000000000000000000000000000000000000000000000000000081526004016108ea90611fad565b60405180910390fd5b919050565b610900610f7d565b4282604001515f015167ffffffffffffffff1611610953576040517f08c379a000000000000000000000000000000000000000000000000000000000815260040161094a9061203b565b60405180910390fd5b61095b610d4b565b156109d8577fc16646301c7615357b8f8ee125956b0e5fbf972fa2a0c26feb1f1ae75d04103f5f1b82604001516040015180519060200120146109d3576040517f08c379a00000000000000000000000000000000000000000000000000000000081526004016109ca906120a3565b60405180910390fd5b610b78565b6109e0610d68565b15610ab0576109ed610dd0565b73ffffffffffffffffffffffffffffffffffffffff166381e4c9a38360400151604001516040518263ffffffff1660e01b8152600401610a2d9190612109565b602060405180830381865afa158015610a48573d5f5f3e3d5ffd5b505050506040513d601f19601f82011682018060405250810190610a6c9190611996565b610aab576040517f08c379a0000000000000000000000000000000000000000000000000000000008152600401610aa290612173565b60405180910390fd5b610b77565b610ab8610deb565b73ffffffffffffffffffffffffffffffffffffffff166381e4c9a38360400151604001516040518263ffffffff1660e01b8152600401610af89190612109565b602060405180830381865afa158015610b13573d5f5f3e3d5ffd5b505050506040513d601f19601f82011682018060405250810190610b379190611996565b610b76576040517f08c379a0000000000000000000000000000000000000000000000000000000008152600401610b6d90612173565b60405180910390fd5b5b5b5f5f600173f4e4fdca9d5d55e64525e314391996a15f7ec600610b9b9190612191565b73ffffffffffffffffffffffffffffffffffffffff1684604051602001610bc2919061239c565b604051602081830303815290604052604051610bde9190611e9d565b5f60405180830381855afa9150503d805f8114610c16576040519150601f19603f3d011682016040523d82523d5f602084013e610c1b565b606091505b5091509150610c2a8282610e06565b505f81806020019051810190610c40919061250f565b9050809350505050919050565b60605f5f601173f4e4fdca9d5d55e64525e314391996a15f7ec600610c729190612191565b73ffffffffffffffffffffffffffffffffffffffff16604051806040016040528087815260200186815250604051602001610cad9190612605565b604051602081830303815290604052604051610cc99190611e9d565b5f60405180830381855afa9150503d805f8114610d01576040519150601f19603f3d011682016040523d82523d5f602084013e610d06565b606091505b5091509150610d158282610e06565b5080806020019051810190610d2a9190612707565b9250505092915050565b610d3c610f4b565b610d44610f4b565b8091505090565b5f610d54610e2a565b80610d635750610d62610e42565b5b905090565b5f6001461480610d785750600a46145b80610d835750608946145b80610d8f575061014446145b80610d9b57506101e046145b80610da7575061210546145b80610db3575061a4b146145b80610dbf575061a4ba46145b80610dcb575061e70846145b905090565b5f73565dca92902ea0ca597b5e62df0b47886b6b7d4d905090565b5f73c4e4dc291a5c4debe9ff5a3372f3fdd2e42bac86905090565b606082610e1b57610e1682610f07565b610e23565b819050610e24565b5b92915050565b5f617a69461480610e3d57506204991946145b905090565b5f5f5f601e73f4e4fdca9d5d55e64525e314391996a15f7ec600610e669190612191565b73ffffffffffffffffffffffffffffffffffffffff16604051610e8890612771565b5f60405180830381855afa9150503d805f8114610ec0576040519150601f19603f3d011682016040523d82523d5f602084013e610ec5565b606091505b5091509150811580610ed757505f8151145b15610ee6575f92505050610f04565b5f81806020019051810190610efb9190611996565b90508093505050505b90565b5f81511115610f195780518082602001fd5b6040517f1425ea4200000000000000000000000000000000000000000000000000000000815260040160405180910390fd5b6040518060800160405280610f5e610fa5565b81526020015f81526020015f8152602001610f77610ffb565b81525090565b6040518060800160405280606081526020016060815260200160608152602001606081525090565b60405180606001604052805f7bffffffffffffffffffffffffffffffffffffffffffffffffffffffff19168152602001610fdd61105a565b81526020015f6001811115610ff557610ff4611418565b5b81525090565b6040518060a001604052805f73ffffffffffffffffffffffffffffffffffffffff1681526020015f7bffffffffffffffffffffffffffffffffffffffffffffffffffffffff191681526020015f81526020015f81526020015f81525090565b604051806101000160405280600890602082028036833780820191505090505090565b5f604051905090565b5f5ffd5b5f5ffd5b5f5ffd5b5f5ffd5b5f601f19601f8301169050919050565b7f4e487b71000000000000000000000000000000000000000000000000000000005f52604160045260245ffd5b6110dc82611096565b810181811067ffffffffffffffff821117156110fb576110fa6110a6565b5b80604052505050565b5f61110d61107d565b905061111982826110d3565b919050565b5f67ffffffffffffffff821115611138576111376110a6565b5b61114182611096565b9050602081019050919050565b828183375f83830152505050565b5f61116e6111698461111e565b611104565b90508281526020810184848401111561118a57611189611092565b5b61119584828561114e565b509392505050565b5f82601f8301126111b1576111b061108e565b5b81356111c184826020860161115c565b91505092915050565b5f602082840312156111df576111de611086565b5b5f82013567ffffffffffffffff8111156111fc576111fb61108a565b5b6112088482850161119d565b91505092915050565b5f73ffffffffffffffffffffffffffffffffffffffff82169050919050565b5f61123a82611211565b9050919050565b61124a81611230565b82525050565b5f6020820190506112635f830184611241565b92915050565b5f819050919050565b61127b81611269565b8114611285575f5ffd5b50565b5f8135905061129681611272565b92915050565b5f602082840312156112b1576112b0611086565b5b5f6112be84828501611288565b91505092915050565b5f5ffd5b5f606082840312156112e0576112df6112c7565b5b81905092915050565b5f602082840312156112fe576112fd611086565b5b5f82013567ffffffffffffffff81111561131b5761131a61108a565b5b611327848285016112cb565b91505092915050565b5f7fffffffff0000000000000000000000000000000000000000000000000000000082169050919050565b61136481611330565b82525050565b5f60089050919050565b5f81905092915050565b5f819050919050565b5f819050919050565b61139981611387565b82525050565b5f6113aa8383611390565b60208301905092915050565b5f602082019050919050565b6113cb8161136a565b6113d58184611374565b92506113e08261137e565b805f5b838110156114105781516113f7878261139f565b9650611402836113b6565b9250506001810190506113e3565b505050505050565b7f4e487b71000000000000000000000000000000000000000000000000000000005f52602160045260245ffd5b6002811061145657611455611418565b5b50565b5f81905061146682611445565b919050565b5f61147582611459565b9050919050565b6114858161146b565b82525050565b61014082015f8201516114a05f85018261135b565b5060208201516114b360208501826113c2565b5060408201516114c761012085018261147c565b50505050565b6114d681611269565b82525050565b6114e581611230565b82525050565b60a082015f8201516114ff5f8501826114dc565b506020820151611512602085018261135b565b50604082015161152560408501826114cd565b50606082015161153860608501826114cd565b50608082015161154b6080850182611390565b50505050565b61022082015f8201516115665f85018261148b565b50602082015161157a610140850182611390565b50604082015161158e6101608501826114cd565b5060608201516115a26101808501826114eb565b50505050565b6115b181611387565b82525050565b5f81519050919050565b5f82825260208201905092915050565b8281835e5f83830152505050565b5f6115e9826115b7565b6115f381856115c1565b93506116038185602086016115d1565b61160c81611096565b840191505092915050565b5f6102808201905061162b5f830187611551565b6116396102208301866115a8565b611647610240830185611241565b81810361026083015261165a81846115df565b905095945050505050565b5f610220820190506116795f830184611551565b92915050565b5f5f6040838503121561169557611694611086565b5b5f6116a285828601611288565b92505060206116b385828601611288565b9150509250929050565b7f496e76616c69642061646472657373206c656e677468000000000000000000005f82015250565b5f6116f16016836115c1565b91506116fc826116bd565b602082019050919050565b5f6020820190508181035f83015261171e816116e5565b9050919050565b7f4e487b71000000000000000000000000000000000000000000000000000000005f52601160045260245ffd5b5f61175c82611269565b915061176783611269565b925082820261177581611269565b9150828204841483151761178c5761178b611725565b5b5092915050565b5f61179d82611269565b91506117a883611269565b92508282019050808211156117c0576117bf611725565b5b92915050565b7f4e487b71000000000000000000000000000000000000000000000000000000005f52603260045260245ffd5b5f60ff82169050919050565b5f611809826117f3565b9150611814836117f3565b9250828202611822816117f3565b915080821461183457611833611725565b5b5092915050565b5f611845826117f3565b9150611850836117f3565b9250828201905060ff81111561186957611868611725565b5b92915050565b5f81519050919050565b5f819050602082019050919050565b5f7fffffffffffffffffffffffffffffffffffffffff00000000000000000000000082169050919050565b5f6118be8251611888565b80915050919050565b5f82821b905092915050565b5f6118dd8261186f565b826118e784611879565b90506118f2816118b3565b925060148210156119325761192d7fffffffffffffffffffffffffffffffffffffffff000000000000000000000000836014036008026118c7565b831692505b5050919050565b61194281611269565b82525050565b5f60208201905061195b5f830184611939565b92915050565b5f8115159050919050565b61197581611961565b811461197f575f5ffd5b50565b5f815190506119908161196c565b92915050565b5f602082840312156119ab576119aa611086565b5b5f6119b884828501611982565b91505092915050565b7f4661696c6564206368656174636f646520696e766f636174696f6e00000000005f82015250565b5f6119f5601b836115c1565b9150611a00826119c1565b602082019050919050565b5f6020820190508181035f830152611a22816119e9565b9050919050565b5f5ffd5b5f5ffd5b611a3a816117f3565b8114611a44575f5ffd5b50565b5f81359050611a5581611a31565b92915050565b5f67ffffffffffffffff82169050919050565b611a7781611a5b565b8114611a81575f5ffd5b50565b5f81359050611a9281611a6e565b92915050565b5f60808284031215611aad57611aac611a29565b5b611ab76080611104565b90505f82013567ffffffffffffffff811115611ad657611ad5611a2d565b5b611ae28482850161119d565b5f830152506020611af584828501611a47565b602083015250604082013567ffffffffffffffff811115611b1957611b18611a2d565b5b611b258482850161119d565b6040830152506060611b3984828501611a84565b60608301525092915050565b5f67ffffffffffffffff821115611b5f57611b5e6110a6565b5b611b6882611096565b9050602081019050919050565b5f611b87611b8284611b45565b611104565b905082815260208101848484011115611ba357611ba2611092565b5b611bae84828561114e565b509392505050565b5f82601f830112611bca57611bc961108e565b5b8135611bda848260208601611b75565b91505092915050565b5f60608284031215611bf857611bf7611a29565b5b611c026060611104565b90505f611c1184828501611a84565b5f83015250602082013567ffffffffffffffff811115611c3457611c33611a2d565b5b611c4084828501611bb6565b602083015250604082013567ffffffffffffffff811115611c6457611c63611a2d565b5b611c7084828501611bb6565b60408301525092915050565b5f60608284031215611c9157611c90611a29565b5b611c9b6060611104565b90505f82013567ffffffffffffffff811115611cba57611cb9611a2d565b5b611cc68482850161119d565b5f83015250602082013567ffffffffffffffff811115611ce957611ce8611a2d565b5b611cf584828501611a98565b602083015250604082013567ffffffffffffffff811115611d1957611d18611a2d565b5b611d2584828501611be3565b60408301525092915050565b5f611d3c3683611c7c565b9050919050565b7f6e6f2077616c6c6574206164647265737320696e207375626a656374000000005f82015250565b5f611d77601c836115c1565b9150611d8282611d43565b602082019050919050565b5f6020820190508181035f830152611da481611d6b565b9050919050565b7f696e76616c696420656d61696c20646f6d61696e0000000000000000000000005f82015250565b5f611ddf6014836115c1565b9150611dea82611dab565b602082019050919050565b5f6020820190508181035f830152611e0c81611dd3565b9050919050565b5f81905092915050565b5f611e27826115b7565b611e318185611e13565b9350611e418185602086016115d1565b80840191505092915050565b5f611e588284611e1d565b915081905092915050565b5f81905092915050565b5f611e778261186f565b611e818185611e63565b9350611e918185602086016115d1565b80840191505092915050565b5f611ea88284611e6d565b915081905092915050565b611ebc81611387565b8114611ec6575f5ffd5b50565b5f81519050611ed781611eb3565b92915050565b5f60208284031215611ef257611ef1611086565b5b5f611eff84828501611ec9565b91505092915050565b5f604082019050611f1b5f830185611939565b611f286020830184611939565b9392505050565b5f611f39826117f3565b9150611f44836117f3565b9250828203905060ff811115611f5d57611f5c611725565b5b92915050565b7f496e76616c6964206865782063686172616374657200000000000000000000005f82015250565b5f611f976015836115c1565b9150611fa282611f63565b602082019050919050565b5f6020820190508181035f830152611fc481611f8b565b9050919050565b7f456d61696c50726f6f663a206578706972656420444e532076657269666963615f8201527f74696f6e00000000000000000000000000000000000000000000000000000000602082015250565b5f6120256024836115c1565b915061203082611fcb565b604082019050919050565b5f6020820190508181035f83015261205281612019565b9050919050565b7f4e6f7420612076616c69642056444e532068617264636f646564206b657900005f82015250565b5f61208d601e836115c1565b915061209882612059565b602082019050919050565b5f6020820190508181035f8301526120ba81612081565b9050919050565b5f82825260208201905092915050565b5f6120db8261186f565b6120e581856120c1565b93506120f58185602086016115d1565b6120fe81611096565b840191505092915050565b5f6020820190508181035f83015261212181846120d1565b905092915050565b7f4e6f7420612076616c69642056444e53207075626c6963206b657900000000005f82015250565b5f61215d601b836115c1565b915061216882612129565b602082019050919050565b5f6020820190508181035f83015261218a81612151565b9050919050565b5f61219b82611211565b91506121a683611211565b9250828201905073ffffffffffffffffffffffffffffffffffffffff8111156121d2576121d1611725565b5b92915050565b5f82825260208201905092915050565b5f6121f2826115b7565b6121fc81856121d8565b935061220c8185602086016115d1565b61221581611096565b840191505092915050565b612229816117f3565b82525050565b61223881611a5b565b82525050565b5f608083015f8301518482035f86015261225882826121e8565b915050602083015161226d6020860182612220565b506040830151848203604086015261228582826121e8565b915050606083015161229a606086018261222f565b508091505092915050565b5f82825260208201905092915050565b5f6122bf8261186f565b6122c981856122a5565b93506122d98185602086016115d1565b6122e281611096565b840191505092915050565b5f606083015f8301516123025f86018261222f565b506020830151848203602086015261231a82826122b5565b9150506040830151848203604086015261233482826122b5565b9150508091505092915050565b5f606083015f8301518482035f86015261235b82826121e8565b91505060208301518482036020860152612375828261223e565b9150506040830151848203604086015261238f82826122ed565b9150508091505092915050565b5f6020820190508181035f8301526123b48184612341565b905092915050565b5f6123ce6123c98461111e565b611104565b9050828152602081018484840111156123ea576123e9611092565b5b6123f58482856115d1565b509392505050565b5f82601f8301126124115761241061108e565b5b81516124218482602086016123bc565b91505092915050565b5f6080828403121561243f5761243e611a29565b5b6124496080611104565b90505f82015167ffffffffffffffff81111561246857612467611a2d565b5b612474848285016123fd565b5f83015250602082015167ffffffffffffffff81111561249757612496611a2d565b5b6124a3848285016123fd565b602083015250604082015167ffffffffffffffff8111156124c7576124c6611a2d565b5b6124d3848285016123fd565b604083015250606082015167ffffffffffffffff8111156124f7576124f6611a2d565b5b612503848285016123fd565b60608301525092915050565b5f6020828403121561252457612523611086565b5b5f82015167ffffffffffffffff8111156125415761254061108a565b5b61254d8482850161242a565b91505092915050565b5f60029050919050565b5f81905092915050565b5f819050919050565b5f61257e83836121e8565b905092915050565b5f602082019050919050565b5f61259c82612556565b6125a68185612560565b9350836020820285016125b88561256a565b805f5b858110156125f357848403895281516125d48582612573565b94506125df83612586565b925060208a019950506001810190506125bb565b50829750879550505050505092915050565b5f6020820190508181035f83015261261d8184612592565b905092915050565b5f67ffffffffffffffff82111561263f5761263e6110a6565b5b602082029050602081019050919050565b5f5ffd5b5f61266661266184612625565b611104565b9050808382526020820190506020840283018581111561268957612688612650565b5b835b818110156126d057805167ffffffffffffffff8111156126ae576126ad61108e565b5b8086016126bb89826123fd565b8552602085019450505060208101905061268b565b5050509392505050565b5f82601f8301126126ee576126ed61108e565b5b81516126fe848260208601612654565b91505092915050565b5f6020828403121561271c5761271b611086565b5b5f82015167ffffffffffffffff8111156127395761273861108a565b5b612745848285016126da565b91505092915050565b50565b5f61275c5f83611e63565b91506127678261274e565b5f82019050919050565b5f61277b82612751565b915081905091905056fe5e4d696e74206d7920646f6d61696e204e465420617420616464726573733a202830785b612d66412d46302d395d7b34307d29245e5b5c772e2d5d2b40285b612d7a412d5a5c642e2d5d2b5c2e5b612d7a412d5a5d7b322c7d2924a264697066735822122017a7498e04fafa8a3438be7d26159296c6adaccf70e526834fc7d624a3a9d11e64736f6c634300081c0033","linkReferences":{}},"methodIdentifiers":{"main((string,(string,uint8,string,uint64),(uint64,bytes,bytes)))":"ac6981e5","proof()":"faf924cf","setBlock(uint256)":"87cea3ae","setChain(uint256,uint256)":"ffbc5638","stringToAddress(string)":"15706fdf"},"id":73}